:020000040800F2
:1000000090080020BD010008953D0008E53100087A
:10001000913D000801060008194500080000000095
:10002000000000000000000000000000E94300089C
:100030000506000800000000E5430008ED43000845
:10004000D7010008D7010008D7010008D701000830
:10005000D7010008D7010008D7010008D701000820
:10006000D7010008D7010008D7010008D701000810
:10007000D7010008D7010008D7010008D701000800
:10008000D7010008D7010008D7010008D7010008F0
:10009000D7010008D7010008D7010008D7010008E0
:1000A000D7010008D7010008D7010008D7010008D0
:1000B000F5430008D7010008D7010008D701000860
:1000C000D7010008D7010008D7010008D7010008B0
:1000D000D70100080D450008D7010008D701000826
:1000E000D7010008D7010008D701000800F002F886
:1000F00000F055F814A696E8000CB244B344DA4573
:1001000001D100F04CF8BAE80F000FA696E83000D5
:10011000A5EB040504EB0607AAEB0704A7F101070A
:100120004FEA15154FEA3414A4F10104AC4201D38F
:1001300000F035F813F0010F18BFFB1A43F001036C
:1001400000F001F8DBE71847C0530000E05300005F
:10015000103A24BF78C878C1FAD8520724BF30C8F3
:1001600030C144BF04680C60704700007047000055
:100170000023002400250026103A28BF78C1FBD8B0
:10018000520728BF30C148BF0B607047642900F098
:100190008980002070471FB51FBD10B510BD00F04D
:1001A00039F91146FFF7F7FF04F016FA00F057F996
:1001B00003B4FFF7F2FF03BC00F05EF90948804783
:1001C00009480047FEE7FEE7FEE7FEE7FEE7FEE739
:1001D000FEE7FEE7FEE7FEE704480549054A064B51
:1001E00070470000F1430008ED0000089002002075
:1001F0009008002090040020900400200FB41CB54B
:100200000C0007AA009007D04142A14202D320442B
:10021000401E01E04FF0FF30074B7B4469460190E0
:10022000069800F0DCF80021002C01D0009A117033
:100230001CBC5DF814FB0000E70100002DE9F04153
:100240000E460446002020622046E168884730B30D
:10025000252805D0D4E901219047206A401CF2E707
:10026000E168204600278847050018D0A5F1410025
:10027000192802D820354FF4006732462946204617
:100280002760FFF783FF40B1012804D0F61D26F058
:1002900007060836D8E7361DD6E72846DAE7206A8B
:1002A000BDE8F0812DE9F04106460024106875296B
:1002B000314616A510D0AFF30080002802DA404284
:1002C00013A507E031688A0701D512A502E04907A6
:1002D00004D511A5012401E0AFF3008000210A221A
:1002E00006F1240709E0B0FBF2FCB0FBF2F302FBDD
:1002F0001C00303078541846491C0028F3D123469E
:100300002A463046BDE8F04100F00BB8000000007E
:100310002D0000002B0000002000000070477047F7
:1003200070472DE9F0470D4699469246044600F184
:1003300024080168880604D5E06921F010012160D5
:1003400000E00120A84201DD471B00E00027A16971
:100350007A1902EB0900081AA0612078C00602D4BD
:100360002046AFF30080002608E0D4E901211AF806
:1003700006009047206A401C761C20624E45F4DB44
:100380002078C0060AD52046AFF3008006E0D4E905
:10039000012130209047206A401C2062381EA7F1BE
:1003A0000107F4DC07E0D4E9012118F805009047C3
:1003B000206A401C2062281EA5F10105F3DC2046BE
:1003C000AFF300802078000602D50220BDE8F08758
:1003D0000120FBE701694A1C02610878704700B5FB
:1003E0008FB0CDE901310021059105497944CDE96E
:1003F000031011466846FFF721FF0FB000BD000053
:10040000E5FFFFFFD1E900239A4202D2531C0B60A3
:1004100010707047754600F02BF8AE46050069462F
:10042000534620F00700854618B020B5FFF7D4FEEC
:10043000BDE820404FF000064FF000074FF00008E5
:100440004FF0000BAC46ACE8C009ACE8C009ACE822
:10045000C009ACE8C00921F007018D46704710B50E
:100460000446AFF300802046BDE81040FFF7A0BE71
:10047000004870472000002001491820ABBEFEE76D
:100480002600020070470000B0B50446006881688D
:10049000C90709D0816821F00101816000F07EFE6A
:1004A00021688968C90701D10020B0BD054602E076
:1004B0008068C007F8D000F071FE411B2068032956
:1004C000F6D38168C907F3D0A06A40F01000A0629B
:1004D000E06A40F00100E0620120B0BD0146406AE0
:1004E000826A12F0500F03D0006A026B0846104770
:1004F0000168826A42F400728262896801F46021B4
:10050000B1F5602F01D1017B11B100F06BBA00BFD2
:10051000816A21F480718162816AC90448BF00F058
:1005200061BA816A41F00101816200F05BBA0000AA
:10053000406A816A41F040018162C16A41F0040170
:10054000C16200F053BA0000406A00F04DBA0000EA
:10055000B0B582B004460020019021688A68D207B5
:100560004BD1886840F00100886040F21800C2F268
:10057000000000684DF68361C4F21B31A0FB01014D
:10058000880C01900198A0B1019801380190019860
:1005900078B1019801380190019850B10198013863
:1005A0000190019828B10198013801900198002824
:1005B000EAD100F0F3FD21688968C9071CD105461E
:1005C00003E000BF8068C00716D100F0E7FD411BC3
:1005D00020680329F6D38168C907F3D1A06A40F0E7
:1005E0001000A062E06A40F00100E062002084F8A0
:1005F0002400012002B0B0BD002002B0B0BD000058
:10060000FEE7000070470000002808BF704710B5E3
:100610004EF2100141F6401CCEF20001C0F2010C76
:1006200010F00302034633D00023C1F804C08B60EE
:1006300005230B600B68DB0309D40B68DB035CBF8D
:100640000B685FEAC33302D40B68DB03F2D50423E3
:10065000012A0B6004D1431E04281BD336E000BFDF
:100660000023C1F804C08B6005230B600B68DB031B
:1006700009D40B68DB035CBF0B685FEAC33302D4A9
:100680000B68DB03F2D50423022A0B6006D1831E1C
:1006900004281BD2BDE81040704700BF0022C1F8FB
:1006A00004C08A6005220A600A68D20309D40A6875
:1006B000D2035CBF0A685FEAC23202D40A68D2037E
:1006C000F2D5C31E04220A600428E3D34FF0000EC3
:1006D0000522042003E000BF043B0860DAD0C1F823
:1006E00004C0C1F808E00A600C68E4030AD40C688E
:1006F000E4035CBF0C685FEAC43403D40C68E40311
:10070000F2D500BF0860C1F804C0C1F808E00A6073
:100710000C68E4030AD40C68E4035CBF0C685FEA6D
:10072000C43403D40C68E403F2D500BF0860C1F8F8
:1007300004C0C1F808E00A600C68E4030AD40C683D
:10074000E4035CBF0C685FEAC43403D40C68E403C0
:10075000F2D500BF0860C1F804C0C1F808E00A6023
:100760000C68E403B8D40C68E4035CBF0C685FEA6F
:10077000C434B1D40C68E403F2D5ADE7EFF31080D4
:1007800072B600BFFEE7000070B582B004460020DC
:10079000019094F82400012802D1022002B070BD1B
:1007A000012084F824002046FFF76EFE2046FFF764
:1007B000CFFE28B1002184F8241002B070BD00BF24
:1007C0000646A06A41F2021188430230A06240F25C
:1007D0001800C2F200000568022000F071FFB5FBAE
:1007E000F0F0400001900198A8B100BF01980138D5
:1007F0000190019878B1019801380190019850B1A9
:10080000019801380190019828B1019801380190B0
:1008100001980028EAD12068816841F008018160D0
:1008200000F0BCFC21688A6812070FD4886840F089
:100830000400886000F0B2FC21688968490715D47B
:1008400001216FF00302304622E000BF054602E0BE
:1008500088680007EAD500F0A1FC401B21680B283E
:10086000F6D388680007F3D50EE000BF054602E026
:1008700080684007E4D500F091FC411B20680B29FB
:10088000F6D381684907F3D5012010216FF01202D9
:10089000A36A1A401143A162002184F8241002B017
:1008A00070BD000070B581B00022009290F8242045
:1008B000012A03D10221084601B070BD4A68012314
:1008C000062A02EB820E80F8243007D8D0F800C048
:1008D0006FF004030CF134060CE000BFD0F800C048
:1008E0000C2A87BF0CF12C066FF040030CF1300688
:1008F0006FF022030EEB03021F23346803FA02F5A4
:100900000B6824EA050503FA02F22A433260092B38
:1009100003EB43021AD9DCF80C601E3A07258968FC
:100920009540AE43914023F001023143102ACCF8A8
:100930000C1015D142F20041C4F201018C4517D0D0
:10094000816A41F02001816201210AE0DCF8103067
:10095000072689689640B34391401943CCF810109C
:100960000021002280F82420084601B070BD00BF9D
:1009700089680902F4D4DCF80810102B41F4000156
:10098000CCF80810ECD140F21801C2F2000109685D
:100990004DF68362C4F21B32A1FB0212910C01EBF3
:1009A00081014900009100990029D9D000990139AD
:1009B000009100990029D3D0009901390091009944
:1009C0000029CDD000990139009100990029C7D0A4
:1009D000009901390091009900294FF00001E5D1FB
:1009E000BFE700007047000070470000704700003C
:1009F000002804BF01207047B0B50446806A28B1C2
:100A000021688868C0070CD115E000BF0020E062B3
:100A100084F82400204600F097F821688868C00711
:100A200009D0886820F00100886000F0B7FB2168D9
:100A30008A68D20726D1A06AC0063AD4A06A41F2D9
:100A4000021290430230A062E069D4E9013240EA28
:100A5000030C531EB3FA83F35D091346B2F5807F8E
:100A600018BF2B02207D257B01284CEA45002CD1A4
:100A700035B3A56A45F02005A562E56A45F0010594
:100A8000E56222E0054602E08868C007D3D000F0A6
:100A900085FB401B21680328F6D38868C007F3D084
:100AA000A06A40F01000A062E06A40F00100E0623D
:100AB000A06AA06A40F01000A0620120B0BD00BF93
:100AC000A56903EB4533A3F5C0534D68B2F5807FAC
:100AD00025F4694543EA05034B608B684FF2FD75C9
:100AE000CFF6E17503EA050343EA00038B6001D00A
:100AF000012A07D122690023CFF6F07303EB0252DB
:100B000001E000BF0022CB6A23F470031A43CA62DB
:100B1000896840F6FE62CFF61F721140814207D10C
:100B20000020E062A16A012262F30101A162B0BD6E
:100B3000A06A40F0100020F00200A062E06A40F0DD
:100B40000100E0620120B0BD70B586B0044640F6F9
:100B50000000C4F20100216800F5E0520026914235
:100B60000596CDE90366029602D006B070BD00BFBF
:100B700041F21801C4F202010A6842F400720A60EC
:100B80000A6802F400720192019A0A6842F00402B3
:100B90000A60096801F00401019101997021029134
:100BA0000321039102A900F0DDF940F2CC050820F1
:100BB000C2F20005C4F202004FF48072C5E90006DB
:100BC00005F1100080214FF480634FF0200C80E885
:100BD0000C102846C5E90261EE6100F01DF90028FD
:100BE00018BFFFF7CBFD25626C6206B070BD000038
:100BF000F0B581B0036842F60006C4F20106B342C4
:100C000005D042F20046C4F20106B3420AD142F2D4
:100C10000443C4F201031B6813F4702F02D00120B7
:100C200001B0F0BD90F82430012B03D1022001B0B7
:100C3000F0BD00BF0D460121174680F8241006467E
:100C4000FFF786FC30B1002086F82400012001B0B7
:100C5000F0BD00BF42F204403168B36AC4F2010043
:100C6000324640F60176B34300F57F7603F5807394
:100C7000B142936244D0906A20F480109062486838
:100C8000400504D5906A012363F30D309062936AA6
:100C90000020DB044FF0000344BFD36A23F00603B7
:100CA000D36282F82400106A40F2DD4340F24956D4
:100CB000C0F60003C0F6000640F23154C0F600044E
:100CC000C0E90A366FF0020304630B608B681446B8
:100CD00043F480738B604C312A463B4600F0DEF8CB
:100CE0002068816801F460228168B2F5602F0CBF32
:100CF00041F4A00141F480118160002001B0F0BDF9
:100D0000036813F4702FB6D0936A43F48013936290
:100D100000684005B6D4BAE7014690F821000228E1
:100D200016D10868D1E90FC3026822F00E020260F2
:100D3000026822F001020260012000FA03F2CCF8FE
:100D4000042081F821000020002281F82020704733
:100D5000042088630120002281F8202070470000D1
:100D600090F82110022923D1026840F2040C116886
:100D7000C4F2020C21F00E01116013682F21C4F29D
:100D800002018A4223F00103136015DD3023C4F20F
:100D900002039A421CD04423C4F202039A421BD09D
:100DA0005823C4F202039A421CD14FF4803321E04D
:100DB00004218163012070470823C4F202039A4290
:100DC0000ED01C23C4F202039A420BD1102311E06F
:100DD0004FF480730EE000BF4FF480530AE000BF71
:100DE000012307E00CF168014FF080738A4208BFCD
:100DF0004FF480130121CCF8003080F82110416BB2
:100E00000022002980F8202004BF0020704780B510
:100E10008847002080BD0000014600284FF00100F7
:100E200008BF70472DE9F043D1F800C04FF6F873C2
:100E3000CBF6FD734CF6CD426344CCF6CC42A3FB1B
:100E400002236FF0030202EA93020023C4F20203BA
:100E500001F10C08C1E90F320222D1E9019E98E8A4
:100E6000F00181F82120DCF8002043F6F0739A436A
:100E700042EA090242EA0E0222432A4332433A433B
:100E800042EA0802CCF8002000228A6381F821009F
:100E900081F820200020BDE8F043704790F820C082
:100EA000BCF1010F04BF02207047F0B54FF0010EF6
:100EB00080F820E090F821C0BCF1010F26D14FF05E
:100EC000020C80F821C04FF0000CC0F838C0D0E907
:100ED00000C4C56AC66BDCF80070102C27F001074F
:100EE000CCF80070006C0EFA00F070600846CCF888
:100EF000043004BF10460A46CCF80800CCF80C2099
:100F0000DCF8000045B140F00E000DE0002180F853
:100F100020100220F0BD00BF20F00400CCF800003B
:100F2000DCF8000040F00A00CCF80000DCF800001B
:100F300040F00100CCF800000020F0BDB0B5044640
:100F400000F02CF9054640F20000C2F200000078E3
:100F5000611C18BF044400BF00F020F9401BA042F0
:100F6000FAD3B0BD2DE9F04F82B00E68002E00F02C
:100F7000FD8041F20042C4F20102042340F2004E1F
:100F8000904208BF03234FF6FF7CC4F2010E00938A
:100F900000240123C1F2100C4FF0000A4FF00009A9
:100FA0004BE000BF41F20002C4F20102009F9042F8
:100FB00008BF022704F00C030F229A402BEA02021A
:100FC00007FA03F34FEA9A051A4346F825204E68BC
:100FD00040F20C45F202DEF8082054BF22EA080273
:100FE00042EA0802C4F20105CEF808202A68B302DA
:100FF00054BF22EA080242EA08022A60B303DEF87C
:10100000042054BF22EA080242EA0802F303CEF8A1
:101010000420DEF800204FF0010354BF22EA08024A
:1010200042EA0802CEF800200E680AF1010A36FAF8
:101030000AF204F1040400F0998003FA0AFB16EAAC
:101040000B08F1D04E68664512DC122E56D8DFE848
:1010500006F0350B4D495555555555555555555572
:1010600055555545510000BFD1F80C9046E000BFE2
:101070004FF6FF72C1F2210296420FDC0022C1F24C
:10108000110296421AD00022C1F21202964215D0E5
:101090000022C1F22102964210D02FE00022C1F2BC
:1010A000220296420AD00022C1F23102964205D0B5
:1010B0000022C1F23202964220D100BF8A684AB1B2
:1010C000012A14BFC0F814B0C0F810B04FF00809DE
:1010D00014E000BF4FF0040910E000BFCA6802F13D
:1010E00004090BE04FF0000908E000BFCA6802F1F4
:1010F000080903E0CA6802F10C0900BF024626464F
:10110000B8F5807F24BF0432203E17680F25B54014
:1011100027EA050509FA06F635431560CA79D206AD
:101120007FF582AF41F21803C4F202031A68AEF5EC
:101130007E7642F001021A601A6802F00102019202
:10114000019A2AF0030256F802B040F60002C4F2F7
:101150000102904208D040F60042C4F201029042DF
:101160007FF420AF012725E7002723E702B0BDE881
:10117000F08F00008068084018BF01207047000011
:10118000C26802EA0103914341EA034101617047E9
:10119000002A08BF090401617047000040F288205E
:1011A000C2F2000000687047002804BF01207047A9
:1011B000F0B581B0044690F83D0028B9002084F8CD
:1011C0003C00204600F090F9242084F83D0020687F
:1011D000016821F001010160016841F400410160F2
:1011E000016821F40041016000F046FC636848F2A8
:1011F000A16CC0F2010C40F60011C0F23D01634544
:101200003CBF48F28041C0F21E01884202D2012058
:1012100001B0F0BD4DF68361C4F21B31A0FB011299
:101220002168970CD1F804E04FF496762EF03F0534
:1012300045EA92454D60774348F638160D6AC0F28C
:101240004106A7FB067625F03F07634538BF960C9D
:10125000721C3A430A62CA6948F2A0664CF6FF77EC
:10126000C0F20106B34222EA07020BD801385B0044
:10127000B0FBF3F001306FF31F30042898BF042057
:101280001BE000BFA768013857B119277B43B0FBAB
:10129000F3F001306FF31F3070B100F5804007E0CC
:1012A00003EB4303B0FBF3F001306FF31F3018B1D1
:1012B00000F5004001E000BF01201043C86108684C
:1012C000D4E9072320F0C000104318430860886861
:1012D00048F2FF3204F10C0790438CCF18431043BF
:1012E000A6698860C86820F0FF0038433043C860B2
:1012F000086840F00100086000202021206484F884
:101300003D10206384F83E0001B0F0BD2DE9F043AC
:1013100083B01E46174689460446FFF73FFF94F800
:101320003D10202924D10546206800BF8169890726
:101330001AD5FFF733FF411B20681A29F6D38169BC
:101340008907F3D500202021206384F83D1084F81C
:101350003E00216C41F02001216484F83C00022011
:1013600003B0BDE8F08300BF94F83C10012903D11D
:10137000022003B0BDE8F083012184F83C1001682D
:10138000C90703D1016841F001010160016840F221
:10139000020821F400610160212184F83D10102130
:1013A00084F83E100021216467626685618DC0F279
:1013B00001082185A8F10211E162E16A0A9E11F596
:1013C000803F18BF01291DD1016841F4807101607F
:1013D00020464FF0011100223346009501F062FFD4
:1013E00050B120680068C00544BF4FF4007020640D
:1013F000012003B0BDE8F0832069B0F5804F07D12C
:10140000FE2015E00829DFD0216B1229DCD0DFE7B0
:10141000062000EAD9102168F030086108F10601C1
:10142000204632462B4602F023F80028E0D1FF2068
:10143000216800EA090008612046414632462B46F1
:1014400002F016F80028D3D10020029020684169EC
:10145000029180690290029806E000BF2046314662
:101460002A4601F0C1FE18BB208D68B320463146E4
:101470002A4602F069F8D8B9606A2168024612F873
:10148000013B0B616262628D013A6285228D531EBF
:1014900023854F697F07E1D51B04DFD043780230F5
:1014A0000B616062608D01386085901E2085D5E7F4
:1014B000206C04289CD12068016841F4007101600F
:1014C000012003B0BDE8F0832068016841F4007199
:1014D0000160202084F83D00002084F83E0084F85C
:1014E0003C0003B0BDE8F08310B586B0016845F25A
:1014F0000040C4F2000081424FF00001CDE9041128
:10150000CDE9021102D006B010BD00BF41F21804AF
:10151000C4F20204216800F5384041F0080121605E
:10152000216801F0080101910199C0210291122165
:1015300003910321059102A9FFF714FD606840F4AF
:1015400000106060606800F400100190019806B01F
:1015500010BD000040F2000040F28821C2F20000FD
:10156000C2F2000100780A68104408607047000069
:1015700080B542F20000C4F20200016841F010019F
:101580000160032000F08CF8002000F005F800F066
:1015900027F8002080BD000070B540F20006C2F2BE
:1015A000000640F218013278C2F200014FF47A735B
:1015B0000968B3FBF2F20446B1FBF2F1084600F011
:1015C00083FC0F2C4FF0010508D838B94FF0FF30DD
:1015D00021460022002500F037F87460284670BDCF
:1015E00082B041F21800C4F202000168022241F008
:1015F00001010160016801F0010101910199416857
:1016000041F080514160406800F0805000900098A7
:101610000420C4F20100016862F31A61016002B0A3
:1016200070470000002848BF704700F01F010122EA
:1016300002FA01F11C2202EAD0004EF20012CEF2B0
:10164000000281507047000010B54EF60C5CCEF2DF
:10165000000CDCF80030C3F3022E8EF00704042CDB
:1016600028BF0424BEF103034FF0FF3E0EFA04F43A
:1016700038BF0023A14399400EFA03F39A43114364
:1016800000F00F0200F160430901043A03F56443DE
:101690006244002848BF02F10C03197010BD00001D
:1016A0004EF60C51CEF200010A684FF6FF031A40C5
:1016B00060F30A2242F0806040F0FD7008607047DD
:1016C000012821D002280DD0102808D141F20401B0
:1016D000C4F202010A6851F8040CC00134D400209D
:1016E000704700BF80B500F0DBF941F20401C4F29D
:1016F000020109680222C1F3813102EB4101B0FB12
:10170000F1F0BDE88040704741F20400C4F20200ED
:10171000C16940F202320A40B2F5817F04BF4FF442
:101720000040704701F44071B1F5407F18D0B1F529
:10173000007F1CBF00207047006A49F640418007C7
:1017400001EAE070704700BFC2F3834015A3185C44
:10175000D2030DD440F60012C0F23D02504313E014
:1017600050F8040C4FF22441800301EAE070704706
:101770000A6810A3C2F340429A5C41F20023C0F20F
:101780007A03B3FBF2F250430968490248BF70473D
:101790004AF6AB214000CAF6AA21A0FB0101480885
:1017A000704700BF02030405060708090A0B0C0D69
:1017B0000E0F1010010200002DE9F04182B0044626
:1017C000007841F21C06C007C4F202064AD0306815
:1017D0005FEAC00808D4306840F08050306030685C
:1017E00000F080500190019847F20007C4F2000712
:1017F0003868C00512D4386840F480703860FFF74C
:10180000CDFC05463868C00508D4FFF7C7FC401B6F
:101810006428F7D9032002B0BDE8F081706810F4A5
:10182000407012D0616801F4407188420DD0706838
:1018300040F24042C4F24222012320F4407113607E
:101840000023C0071360716026D17068616820F4BE
:1018500040700843B8F1000F706003D4306820F086
:10186000805030602068810707D556F8181CA268A0
:1018700021F44041114346F8181CC00607D556F81C
:10188000180CE16820F48000084346F8180C00208A
:1018900002B0BDE8F08100BFFFF780FC054641F2D1
:1018A000883700BF70688007CFD4FFF777FC401BF4
:1018B000B8424FF00300F5D9EAE70000002804BF62
:1018C000012070472DE9F04381B042F20008C4F2D4
:1018D00002080446D8F800000D4600F007008142D7
:1018E0000CD9D8F8000020F007002843C8F8000001
:1018F000D8F8000000F00700A8426CD1206841F23F
:1019000004098107C4F2020917D5410705D5D9F8A2
:10191000001041F4E061C9F80010010705D5D9F8BD
:10192000001041F46051C9F80010D9F80010A26805
:1019300021F0F0011143C9F80010C00742D1D8F8D6
:10194000000000F0070085420CD2D8F8000020F01B
:1019500007002843C8F80000D8F8000000F007008E
:10196000A84238D12068410707D5D9F80010E268AD
:1019700021F4E0611143C9F80010000708D5D9F837
:101980000000216920F4605040EAC100C9F800005D
:10199000D9F8002002F00C00082841F20020C0F223
:1019A0007A004DD145F2E243C2F38341C0F6000311
:1019B000595CD20338D440F60010C0F23D004843D1
:1019C0003EE000BF606859F8041C022808D00128D6
:1019D00026D1890306D4012001B0BDE8F08300BF01
:1019E0008901F8D5D9F8001021F003010843C9F89E
:1019F0000000FFF7D3FB064641F28837D9F8000014
:101A0000616800F00C00B0EB810F98D0FFF7C6FBC7
:101A1000801BB842F2D9032001B0BDE8F08300BFBB
:101A20008907D8D5DEE700BFD9F8002044F6F06377
:101A3000C2F34042C0F600039A5C4843B0FBF2F0A8
:101A4000D9F8001044F6D862C1F30311C0F60002C1
:101A5000515C40F2180220FA01F140F20400C2F297
:101A600000000068C2F200021160FFF795FD00203F
:101A700001B0BDE8F083000040F2180041F204011B
:101A8000C2F20000C4F202010068096844F6E8628C
:101A9000C1F30221C0F60002515CC840704700004B
:101AA00040F2180041F20401C2F20000C4F2020147
:101AB0000068096844F6E862C1F3C221C0F600027A
:101AC000515CC84070470000002804BF01207047E7
:101AD0002DE9F04182B00446007841F20006C007CB
:101AE000C4F202060CD0706800F00C00042840F02C
:101AF00081803068800303D56068002800F046814B
:101B0000207880071BD5706810F00C0F09D0706822
:101B100000F00C00082840F087807068C00300F1D6
:101B200083803068800703D52069012840F02E812A
:101B30003068616920F0F80040EAC1003060207828
:101B4000000713D4207840072CD4E569002D00F05D
:101B50001881706800F00C00082840F0A780012D63
:101B600040F00481012002B0BDE8F081A0690028A6
:101B700000F084800020C4F242200121C0F88014CB
:101B8000FFF70CFB054600BF706A800700F1B280CA
:101B9000FFF704FB401B0228F6D9032002B0BDE882
:101BA000F08100BFF0695FEAC00808D4F06940F036
:101BB0008050F061F06900F080500090009847F28A
:101BC0000007C4F200073868C00549D4386840F4FB
:101BD00080703860FFF7E2FA054600BF3868C0053C
:101BE0003ED4FFF7DBFA401B6428F7D9032002B08C
:101BF000BDE8F081706800F00C00082803D170681F
:101C0000C0033FF576AF61683068002900F00C81B1
:101C1000B1F5A02F00F00081B1F5803F40F01A81AE
:101C200040F480301CE100BF2069002840F2000031
:101C3000C4F2422000F0888001210160FFF7AEFA73
:101C4000054600BF306880073FF572AFFFF7A6FA80
:101C5000401B0228F6D9032002B0BDE8F08100BF86
:101C6000E168306A002900F09D80052900F092802B
:101C7000012940F0AF8040F00100B1E00020C4F243
:101C800042200021C0F88014FFF788FA054600BF03
:101C9000706A80077FF556AFFFF780FA401B022875
:101CA000F6D9032002B0BDE8F08100BF0027C4F2DE
:101CB000422700203866FFF771FA022D05460DD144
:101CC0003068800140F1DE80FFF768FA401B02288F
:101CD0004FF00300F4D902B0BDE8F0813068800114
:101CE0004FD5FFF75BFA401B02284FF00300F5D9F0
:101CF000F1E700BF40F21800C2F20000006844F6AD
:101D0000D351C1F26201A0FB0101480A019000BF5A
:101D100000BF0198411E002801913FF413AF00BF9E
:101D20000198411E002801913FF40CAF00BF0198BB
:101D3000411E002801913FF405AF00BF0198411EEC
:101D400000280191E4D1FDE600210160FFF726FAA9
:101D5000054600BF306880077FF5F1AEFFF71EFA39
:101D6000401B02284FF00300F4D9B4E77068216AE1
:101D700000F480328A4209D1616A00F4701088420E
:101D800004D1002002B0BDE8F08100BF012002B004
:101D9000BDE8F08140F004003062306A40F001009C
:101DA0001EE000BF20F001003062306A20F0040025
:101DB0003062FFF7F3F9054641F28837306A800751
:101DC00020D5FFF7EBF9401BB8424FF00300F5D9DF
:101DD00081E700BF20F001003062306A20F004008B
:101DE0003062FFF7DBF9054641F28837306A800739
:101DF00008D4FFF7D3F9401BB842F7D9032002B04B
:101E0000BDE8F081B8F1000F3FF59FAEF06920F01A
:101E10008050F06199E600BF40F480203060306867
:101E200040F480301CE000BF20F480303060306827
:101E300020F480203060FFF7B1F905463068800358
:101E40007FF55EAEFFF7AAF9401B64284FF0030050
:101E5000F4D940E720F480303060306820F48020EE
:101E60003060FFF79BF90546306880033FF548AEC8
:101E7000FFF794F9401B6428F6D9032002B0BDE8AF
:101E8000F08100BF206AB0F5803F05D17168A2687B
:101E900021F40031114371607168626A21F4741198
:101EA00011430843706001203866FFF777F9044654
:101EB000306880013FF565AFFFF770F9001B02281D
:101EC0004FF00300F4D906E7411E0020B0EB116F7C
:101ED0001CBF012070474EF21002CEF2000251608A
:101EE0004EF62351CEF20001F0230B7007219060D3
:101EF00011607047704700007047000090F83C2068
:101F0000012A4FF0020236D010B580F83D20026859
:101F1000D2F804E0D2F808C00C682EF07003234316
:101F200040F2FF74C4F20004A24253600ADCB2F132
:101F3000804F13D040F20043C4F200039A420DD008
:101F400011E000BF42F60043C4F201039A4205D0FB
:101F500040F60003C4F200039A4204D149682CF011
:101F60008003194391600121002280F83D1080F820
:101F70003C20BDE81040104670470000002804BF18
:101F80000120704710B590F83D1031B9002180F85C
:101F90003C10044600F070F82046022180F83D1005
:101FA000016840F2FF740B68C4F2000442F6004C72
:101FB000A142C4F2010C15DCB1F1804F1AD040F2FD
:101FC0000042C4F20002914214D0A14218DCB1F1E7
:101FD000804F1DD040F20042C4F20002914217D05F
:101FE0001AE000BF614505D040F60002C4F20002CD
:101FF0009142EAD1826823F070031343A142E6DDE7
:10200000614505D040F60002C4F20002914203D1BE
:10201000026923F440731343846923F08002D0F8EB
:1020200004E0C368224361450A60CB62C1F828E03E
:1020300002D14269CCF8302001224A610B69DB07EA
:1020400003D00B6923F001030B6180F8462080F870
:102050003E2080F83F2080F8402080F8412080F822
:10206000422080F8432080F8442080F8452080F802
:102070003D20002010BD000080B584B0006840F60F
:102080000001C4F20001884230D040F20041C4F2A5
:10209000000188421AD0B0F1804F34D141F21C00C7
:1020A000C4F202000168002241F0010101600068F1
:1020B000002100F00100039003981C20FFF7C4FAF0
:1020C0001C2004B0BDE88040FFF7ACBA41F21C0010
:1020D000C4F20200016841F002010160006800F0F2
:1020E00002000290029804B080BD00BF41F21C00C3
:1020F000C4F20200016841F004010160006800F0D0
:1021000004000190019804B080BD000090F83D10DB
:1021100001291CBF01207047022180F83D10006892
:1021200040F2FF71C4F20001884209DCB0F1804F37
:1021300012D040F20041C4F2000188420CD012E0FB
:1021400042F60041C4F20101884205D040F6000188
:10215000C4F20001884206D1816801F00701062916
:1021600004BF00207047016841F0010101600020B8
:102170007047000090F83D1001291CBF01207047F6
:10218000022180F83D10006840F2FF72C168C4F27D
:102190000002904241F00101C16009DCB0F1804FC2
:1021A00012D040F20041C4F2000188420CD012E08B
:1021B00042F60041C4F20101884205D040F6000118
:1021C000C4F20001884206D1816801F007010629A6
:1021D00004BF00207047016841F001010160002048
:1021E0007047000090F83C20012A4FF002026CD0AA
:1021F00080B580F83D20D0F800C04FF67772DCF84B
:10220000083023EA0202CCF808200B684F2B29DCA7
:102210001F2B45DD202B46D0302B44D0402B40F0E7
:10222000AF80D1F804E0C968DCF82030DCF8202069
:1022300022F00102CCF82020DCF8182022F0F00275
:1022400042EA011123F00A0242EA0E02CCF8181009
:10225000CCF82020DCF8081041F0470121F03001D3
:1022600028E000BF6F2B33DDB3F5005F74D0B3F50A
:10227000805F21D0702B40F08380D1E901E3C968F1
:10228000DCF8082043EA0E0322F47F4243EA0121EE
:102290001143CCF80810DCF8081041F0770109E090
:1022A0000BB1102B6CD1DCF8081021F07001194330
:1022B00041F00701CCF808100022012180F83D1000
:1022C000002180F83C10BDE880401046704700BFF8
:1022D000502B21D0602B53D1D1F804E0C968DCF831
:1022E0002030DCF8202022F01002CCF82020DCF88E
:1022F000182022F4704242EA013123F0A00242EA9F
:102300000E12CCF81810CCF82020DCF8081041F0A0
:10231000670121F01001CDE7D1F804E0C968DCF8CD
:102320002030DCF8202022F00102CCF82020DCF85C
:10233000182022F0F00242EA011123F00A0242EAD8
:102340000E02CCF81810CCF82020DCF8081041F070
:10235000570121F02001ADE7D1E901E3C968DCF8BC
:10236000082043EA0E0322F47F4243EA012111438D
:10237000CCF80810DCF8081041F480419AE700BF5F
:1023800001229AE77047000070B504460068C568EE
:102390000669B10716D515F0020113D06FF00201DE
:1023A0000161012121778069800703D02046FFF772
:1023B000E9FF05E0204600F08FF8204600F010FA13
:1023C00000202077700719D515F0040016D020687A
:1023D0006FF00401016102212177806910F4407FD0
:1023E00004D02046FFF7CEFF06E000BF204600F0F5
:1023F00073F8204600F0F4F900202077300717D555
:1024000015F0080014D020686FF008010161042164
:102410002177C069800703D02046FFF7B3FF05E0AE
:10242000204600F059F8204600F0DAF90020207725
:10243000F00619D515F0100016D020686FF01001C5
:10244000016108212177C06910F4407F04D0204643
:10245000FFF798FF06E000BF204600F03DF8204659
:1024600000F0BEF900202077F00718BF15F001003A
:1024700002D1300609D412E020686FF00101016139
:10248000204600F01DFA300609D515F0800006D070
:1024900020686FF0800101612046FFF72BFD700678
:1024A00009D515F0400006D020686FF040010161A9
:1024B000204600F00DFAB00658BF70BD15F02000A0
:1024C00008D021686FF0200220460A61BDE8704004
:1024D000FFF712BD70BD00007047000090F83C305F
:1024E000012B04BF022070474FEAB202032A00F218
:1024F000F1802DE9F043DFE802F003A53B7500BF52
:10250000036842F600461D6A1A6AC4F2010622F008
:1025100001021A621A465C6852F818CFB3428E68FC
:10252000D1F800E025F0020545EA06050CD1CE6899
:10253000D1E9057824F4407425F00C0526F0040652
:102540003C43354344EA08042CF0730747EA0E077E
:102550005C609F614F6809695F631D629F6947F016
:1025600008079F619F6927F004079F61A6E000BFED
:10257000036842F600461D6A1A6AC4F2010622F494
:1025800080721A621A46D3F804C052F81CEFB342A4
:102590008E680C6825F4007545EA06250FD1CE68D3
:1025A000D1E90598360240F2FF4725F44065BE4365
:1025B00035432CF4405748EA090647EA061C2EF03A
:1025C00073072743C3F804C0DF614F680969DF63FD
:1025D0001D62DF6947F00807DF61DF6927F0040744
:1025E000DF616BE0036842F60047D3F820C01A6A47
:1025F000C4F2010722F480521A621A465C6852F84B
:102600001C5FD1F800E08E68BB4204D14F6924F40E
:10261000804444EA87142CF4005747EA063725F42F
:10262000E64646EA0E265C60DE614E6809691E6475
:102630001F62DF6947F40067DF61DF6927F48067A5
:10264000DF613AE0036842F600461D6A1A6AC4F286
:10265000010622F010021A621A46D3F804C052F89A
:10266000184FB3428E68D1F800E025F0200545EA06
:1026700006150FD1CE68D1E905986FF0400725F017
:10268000C00507EA061635432CF4406748EA0906F8
:1026900047EA860C24F4E64444EA0E27C3F804C053
:1026A0009F614F6809699F631D629F6947F40067D6
:1026B0009F619F6927F480679F610902136819432E
:1026C00011600021BDE8F043002280F83C2008465C
:1026D000704700BF0121002280F83C200846704767
:1026E000002804BF0120704710B590F83D1031B9A3
:1026F000002180F83C10044600F070F820460221CA
:1027000080F83D10016840F2FF740B68C4F20004C9
:1027100042F6004CA142C4F2010C15DCB1F1804F2D
:102720001AD040F20042C4F20002914214D0A142F9
:1027300018DCB1F1804F1DD040F20042C4F200021B
:10274000914217D01AE000BF614505D040F6000263
:10275000C4F200029142EAD1826823F0700313436D
:10276000A142E6DD614505D040F60002C4F2000258
:10277000914203D1026923F440731343846923F027
:102780008002D0F804E0C368224361450A60CB624E
:10279000C1F828E002D14269CCF8302001224A6118
:1027A0000B69DB0703D00B6923F001030B6180F891
:1027B000462080F83E2080F83F2080F8402080F8B6
:1027C000412080F8422080F8432080F8442080F89F
:1027D000452080F83D20002010BD0000704700001B
:1027E00070470000C1B1042908D0082914BF412254
:1027F0004022825C012A05D016E000BF3F22825CA5
:10280000012A11D10222082910D0042914BF80F80E
:10281000412080F83F200BE090F83E20012A03D1B0
:10282000022280F83E2003E00120704780F840201B
:10283000006801F01F010122036A8A4023EA0201B5
:102840000162036A42F64441C4F201011A43A1F154
:102850004403984202620FD040F2FF71C4F20001BB
:10286000884213DCB0F1804F1CD040F20041C4F22A
:102870000001884216D01CE00A6842F400420A6057
:1028800040F2FF71C4F200018842EBDD42F60041E4
:10289000C4F20101884205D040F60001C4F20001F3
:1028A000884206D1816801F00701062904BF002093
:1028B0007047016841F0010101600020704700008D
:1028C00080B500F09FFEBDE8804002F05FB90000D7
:1028D000704700007047000070470000B0B582B03C
:1028E00001680A68CC684B6902F02F05202D04F0BE
:1028F000200505D125B102B0BDE8B04001F086BD8C
:102900005FEA027C1EBF03F0010E04F4907313EB28
:102910000E0341D1036BD50618D5012B16D114F047
:10292000100313D0002201920A6801924A680192B2
:10293000019A496949064BD4818DC28DC38D002B04
:1029400018BF914240F0F48102B0B0BD13062DD5FE
:1029500014F080032AD090F84120212AF4D1826813
:10296000B2F5805F03D10269002A00F06782026A33
:10297000531C036212784A60C28C013A1304C28469
:10298000E2D1C86820F08000C860C86840F040000C
:10299000C86002B0B0BD00BFD30718BF14F4807385
:1029A00040F0D080530700F1D380D8E05206CBD559
:1029B00014F04002C8D0CA6822F04002CA60202148
:1029C00080F8411002B0BDE8B04000F009BC00BF83
:1029D000C16B0A68526893B2002BB5D0858DAB42AB
:1029E000B2D2C2858969202900F0A180016851E82E
:1029F000031F026821F4807142E80313DBB1016810
:102A000051E8031F026821F4807142E8031393B177
:102A1000016851E8031F026821F4807142E8031342
:102A20004BB1016851E8031F026821F4807142E84C
:102A30000313002BDAD1016851E8051F026821F069
:102A4000010142E80513C3B3016851E8051F02689C
:102A500021F0010142E805137BB3016851E8051F2D
:102A6000026821F0010142E8051333B3016851E81F
:102A7000051F026821F0010142E80513002BDAD19D
:102A80001BE000BF016851E8051F026821F040010A
:102A900042E80513DBB1016851E8051F026821F027
:102AA000400142E8051393B1016851E8051F02682F
:102AB00021F0400142E805134BB1016851E8051FC0
:102AC000026821F0400142E80513002BDAD12021F1
:102AD00080F8421000210163016851E8031F026879
:102AE00021F0100142E80313DBB1016851E8031F34
:102AF000026821F0100142E8031393B1016851E824
:102B0000031F026821F0100142E803134BB1016872
:102B100051E8031F026821F0100142E80313002B63
:102B2000DAD1C16B04460846FEF7F6F820460221CA
:102B30004163818DC28D891A89B202B0BDE8B0406F
:102B4000FFF7C8BE436C43F001034364530706D547
:102B5000BEF1000F03D0436C43F0020343649307BC
:102B600006D5BEF1000F03D0436C43F00403436469
:102B7000BCF1000F06D55EEA050303D0436C43F0B9
:102B800008034364436C002B3FF4DEAE920605D588
:102B900025B1044601F03AFC216820464969426C9F
:102BA00001F0400102F00802891800F0B98000BF6E
:102BB000016851E8031F026821F4907142E8031391
:102BC000BBB3016851E8031F026821F4907142E829
:102BD000031373B3016851E8031F026821F4907175
:102BE00042E803132BB3016851E8031F026821F484
:102BF000907142E80313002BDAD11AE0016851E822
:102C0000051F026821F0010142E80513DBB10168EC
:102C100051E8051F026821F0010142E8051393B154
:102C2000016851E8051F026821F0010142E805131F
:102C30004BB1016851E8051F026821F0010142E82B
:102C40000513002BDAD1016B012924D1016851E869
:102C5000031F026821F0100142E80313DBB1016891
:102C600051E8031F026821F0100142E8031393B1F9
:102C7000016851E8031F026821F0100142E80313C4
:102C80004BB1016851E8031F026821F0100142E8CE
:102C90000313002BDAD1202180F8421000210163B8
:102CA00001684969490640F1C380016851E8051F80
:102CB000026821F0400142E80513DBB1016851E8E8
:102CC000051F026821F0400142E8051393B1016835
:102CD00051E8051F026821F0400142E805134BB19D
:102CE000016851E8051F026821F0400142E8051320
:102CF000002BDAD1C16B002900F09A8044F2014226
:102D0000C0F60002044608464A63FEF729F8002888
:102D10003FF41AAEE06B416B02B0BDE8B04008472B
:102D20000446FFF7D9FD0020606402B0B0BD00BFCB
:102D3000891A00BF026852E8032F036822F49072D8
:102D400043E80325BDB3026852E8032F036822F469
:102D5000907243E8032575B3026852E8032F0368B5
:102D600022F4907243E803252DB3026852E8032F42
:102D7000036822F4907243E80325002DDAD11AE0AB
:102D8000026852E8052F036822F0010243E8052596
:102D9000DDB1026852E8052F036822F0010243E822
:102DA000052595B1026852E8052F036822F001025B
:102DB00043E805254DB1026852E8052F036822F06B
:102DC000010243E80525002DDAD1202280F84220B7
:102DD00000220263026852E8032F036822F0100207
:102DE00043E80325DDB1026852E8032F036822F0AF
:102DF000100243E8032595B1026852E8032F0368E7
:102E000022F0100243E803254DB1026852E8032F77
:102E1000036822F0100243E80325002DDAD10222D4
:102E200089B2426302B0BDE8B040FFF753BD00BFB6
:102E300002B0BDE8B040FFF74FBD00BF026A32F8F4
:102E4000023B6FF35F234B60026295E5002804BFED
:102E50000120704710B5044690F8410028B90020C1
:102E600084F84000204600F063F8242084F84100F4
:102E70002068D4E90212C36823F40053C3600369D5
:102E800023F440531A430261D4E904231143C26876
:102E9000194341F20C639A431143C1604169A2692D
:102EA00021F44071114343F60002C4F20102904242
:102EB000416103D0FEF7E0FD02E000BFFEF7F0FD48
:102EC000D4E90023192148439900B0FBF1F048F2FE
:102ED0001F5CC5F2EB1CA0FB0C314FF69C7349093B
:102EE000C0F6FF7301FB0300322303EB0010A0FBCD
:102EF0000C03F02000EA531000EB0110C3F3431160
:102F0000084490601069202120F4904010615069BD
:102F100020F02A005061D06840F40050D0600020BA
:102F2000606484F8411084F84210606310BD0000B2
:102F300070B586B040F60004C4F20104006804F5E0
:102F40004051002688420596CDE90366029601D0DD
:102F500006B070BD41F21800C4F20200016802AD73
:102F600041F480410160016801F4804101910199BF
:102F7000016841F0040101600068294600F0040086
:102F8000019001984FF400700290022003900320FA
:102F900005902046FDF7E6FF4FF48060CDE902067C
:102FA0000120049020462946FDF7DCFF252005215D
:102FB0000022FEF749FB2520FEF734FB06B070BD6A
:102FC00090F84230202B07D100294FF0010318BFA1
:102FD000002A05D11846704702231846704700BFE3
:102FE00000230363816222218285C285436480F8C5
:102FF00042100169006819B1C16841F48071C16073
:10300000416941F001014161C16841F02001C160A5
:1030100018467047006843F60001C4F20101884277
:1030200018BF704710B540F29204C2F2000414F8C1
:10303000010F01F0DBFC40F23C20C2F2000021460F
:103040000122BDE81040FFF7BBBF00002DE9F043AF
:1030500081B0044690F84100202809D100294FF0A2
:10306000010018BF002A07D101B0BDE8F08300BFFE
:10307000022001B0BDE8F0830020606421201D46DD
:103080000E4684F841001746FEF788F8A784E784C7
:10309000A1688146B1F5805F02D1206900285DD02A
:1030A00037460020E28C2168002A5DD06A1C24D0BB
:1030B000002D4AD0804600BF0868000608D4FEF7FD
:1030C0006DF8A0EB0900A8427AD82168C868F3E738
:1030D00017B117F8010B04E038F8020B00276FF363
:1030E0005F204860E08C0138E084E08C0028E3D168
:1030F0003AE000BF0A68120609D40A68120606D42C
:103100000A6812065CBF0A685FEA0262F2D51FB164
:1031100017F8012B05E000BF30F8022B00276FF3F2
:103120005F224A60E28C013AE284E28C002AE4D118
:103130001AE000BF30F8022B00276FF35F224A60CD
:10314000E28C013AE284E28C72B10A68120635D54B
:10315000002FEFD017F8012BF1E700BF0027304612
:10316000E28C2168002AA1D1086840061ED42DB344
:10317000681C14D1086840062AD40868400627D481
:103180000868400624D4086840064FF00000F1D5D6
:103190000DE000BF2068C1680068400618D4FDF744
:1031A000FDFFA0EB0900A842F4D909E0002020218E
:1031B00084F8411001B0BDE8F08300BFFDF7EEFFD9
:1031C0000320202184F8411001B0BDE8F08300BF46
:1031D0000020202184F8411001B0BDE8F0830000F8
:1031E00070470000FEE7000070B50368044653F81E
:1031F000140F400711D40E46481C29D086BB00BFCF
:103200001868400527D4FDF7C9FF236853F8140F49
:10321000400737D518684007F2D5002070BD00BFC1
:1032200018684007F9D41868400514D41868400796
:10323000F3D4186840050ED418684007EDD4186818
:10324000400508D4186840074FF0000048BF70BD23
:1032500018684005E4D56FF480601860042012E01F
:10326000154603E053F8140F4007D6D418684005FC
:10327000F1D4FDF793FF401B2368B042F2D958699F
:103280004007EFD4202000212022216384F83D2034
:1032900084F83E10226C10432064012084F83C1016
:1032A00070BD00002DE9F041054600681E46144639
:1032B00001F47F0201338FB242D0DDF81880B2F5FD
:1032C000803F40F0878040693840C01BB0FA80F0F2
:1032D0004009844240F0C8804EB924E0406938403B
:1032E000C01BB0FA80F04009844240F0BD80FDF779
:1032F00055FFA0EB08012868B142EFD94169394078
:10330000C91BB1FA81F149098C42E7D19BE000BFAA
:1033100040693840C01BB0FA80F0400984424FF049
:10332000000040F0A280FDF739FF2868416939406C
:10333000C91BB1FA81F149098C42E9D183E000BF90
:10334000B2F5803F24D100BF41693940C91BB1FAB1
:1033500081F149098C4240F0878041693940C91B9D
:10336000B1FA81F149098C4240F07E8041693940CF
:10337000C91BB1FA81F149098C4275D141693940C3
:10338000C91BB1FA81F149098C42DDD06CE000BF64
:1033900081693940C91BB1FA81F149098C4263D175
:1033A00081693940C91BB1FA81F149098C425BD16D
:1033B00081693940C91BB1FA81F149098C4253D165
:1033C00081693940C91BB1FA81F149098C42DFD0CA
:1033D0004AE000BF80693840C01BB0FA80F0400965
:1033E000844241D146B923E080693840C01BB0FA1D
:1033F00080F04009844237D1FDF7D0FEA0EB0801F0
:103400002868B142F0D981693940C91BB1FA81F10C
:1034100049098C42E8D116E080693840C01BB0FAF7
:1034200080F0400984424FF0000018BFBDE8F081F1
:10343000FDF7B4FE286881693940C91BB1FA81F1F2
:1034400049098C42E8D100202021286385F83D10ED
:1034500085F83E00296C41F02001296485F83C0084
:103460000120BDE8F08100BF0020BDE8F081000030
:10347000F0B581B0044600681D4643698FB203EA87
:103480000701B94202D1002001B0F0BD41691646E2
:1034900001323CD0490512D47EB300BFFDF77EFE59
:1034A000411B2068B14203D941693940B9422BD14F
:1034B00041693940B942E6D041694905EED5016814
:1034C00041F4007101606FF48061416104200021CA
:1034D0002022216384F83D2084F83E10226C1043A2
:1034E000206484F83C10012001B0F0BD41693940EE
:1034F000B942C8D041694905E1D4FDF74FFE2068C3
:1035000041693940B942F1D02020E0E741694905DD
:10351000D5D441693940B942B5D041694905CED4C5
:1035200041693940B942AED041694905C7D44169C2
:103530003940B942A7D041694905C0D441693940F1
:10354000B942E3D19FE7000070B50368044653F821
:10355000140F000611D40E46481C29D086BB00BFAC
:103560001868400527D4FDF719FE236853F8140F97
:10357000000637D518680006F2D5002070BD00BFE0
:1035800018680006F9D41868400514D418680006B5
:10359000F3D4186840050ED418680006EDD41868F6
:1035A000400508D4186800064FF0000048BF70BD01
:1035B00018684005E4D56FF480601860042012E0BC
:1035C000154603E053F8140F0006D6D418684005DA
:1035D000F1D4FDF7E3FD401B2368B042F2D95869EE
:1035E0000006EFD4202000212022216384F83D2012
:1035F00084F83E10226C10432064012084F83C10B3
:1036000070BD000010B540F28004C2F20004E088F2
:1036100000281CBF0138E08060780130C1B2142955
:10362000607024D30020A178607041F20000E17046
:10363000C4F201004FF40051FDF79CFDB0FA80F197
:103640004A09E1780028A27008BF002904D038B1E7
:10365000012905D1042100E00221227811432170C3
:103660002179DFE801F0031D0D17050060B310BDDF
:1036700098B9E088002804BF4FF47A70E08010BD4C
:10368000D0B1E0880028F2D1207840F00800207006
:1036900003E000BF002808BF10BD0020207110BD4E
:1036A000E0B1207800F0FE0020704FF4FA60E08076
:1036B0000220207110BD00BF207840F01000207063
:1036C0000320207110BD00BF207840F00100207061
:1036D00040F6B830E0800120207110BDE08800285D
:1036E000C5D121784FF47A70E08041F0200020703D
:1036F0000420207110BD000040F28001C2F20001E0
:103700000A78024204BF0020704701281CBF22EA49
:103710000000087001207047B0B584B040F29C00F2
:1037200042F20041C2F20000C4F2010100254FF450
:10373000807201244FF46023C0E900150321047353
:103740000575C36182600161FDF752F9002818BF59
:10375000FDF714F8042001A931C140F29C00C2F227
:10376000000001A9FDF79EF8002818BFFDF706F834
:10377000052001900220029040F29C00C2F200005D
:1037800001A9FDF78FF8002818BFFCF7F7FF062006
:1037900001900320029040F29C00C2F2000001A9B7
:1037A000FDF780F8002818BFFCF7E8FF04B0B0BDB3
:1037B00081B041F21400C4F20200016841F001013D
:1037C0000160006800F001000090009801B07047AF
:1037D000F0B585B0002541F21800CDE90355CDE9DB
:1037E0000155C4F20200016840F6000441F01001E6
:1037F00001600168C4F2010401F010010091009918
:103800000168012241F0200101600168802601F079
:103810002001009100990168012741F00401016035
:10382000016801F0040100910099016841F008016C
:1038300001600068802100F0080000900098204698
:10384000FDF7A6FC4FF4005001A9A1C101AD04F59C
:1038500000602946FDF786FB032004902046294698
:10386000CDE901670397FDF77DFB05B0F0BD0000D2
:1038700080B540F2101045F20041C2F20000C4F2DF
:10388000000148F2A06200234FF4804CC0F2010214
:1038900080E80E00C0E9033CC0E90533C0E9073306
:1038A000FDF782FC002808BF80BDBDE88040FCF722
:1038B00065BF000010B594B040F264100021C2F260
:1038C000000063240E91CDE90C110991CDE9071197
:1038D000CDE90511CDE90311CDE901114FF0804289
:1038E0004723C0E9021401618021C0E900238161FE
:1038F000FEF744FB002818BFFCF740FF4FF4805050
:103900000B9040F26410C2F200000BA9FEF76AFCB3
:10391000002818BFFCF732FF40F26410C2F200002A
:10392000FEF7DEFE002818BFFCF728FF40F2641007
:103930000024C2F2000008A9CDE90844FEF7DEFA2F
:10394000002818BFFCF71AFF6020CDE9010440F2FF
:103950006410C2F2000001A9002203940594FEF74E
:10396000BDFD002818BFFCF709FF40F26410C2F249
:10397000000001A90422FEF7B1FD002818BFFCF7E2
:10398000FDFE40F26410C2F2000001A90822FEF719
:10399000A5FD002818BFFCF7F1FE40F26414C2F246
:1039A000000401A920460C22FEF798FD002818BF4C
:1039B000FCF7E4FE206840F60001C4F200018842F2
:1039C0004FF00001CDE91211CDE910112AD040F2DB
:1039D0000041C4F20001884218D0B0F1804F3BD1C1
:1039E00041F21800C4F20200016841F004010160D4
:1039F00000680F2100F004000F900F9840F600407F
:103A0000C4F20100A0F580601FE000BF41F2180081
:103A1000C4F20200016841F008010160006803215E
:103A20000BE000BF41F21800C4F20200016841F04F
:103A30000801016000684FF4407100F008000F9029
:103A40000F9840F60040C4F201001091022111913C
:103A5000139110A9FDF786FA14B010BDB0B594B05B
:103A600040F60044C4F2010440F2AC100021A4F579
:103A70008432C2F20000472363250E91CDE90C1178
:103A80000991CDE90711CDE90511CDE90311CDE982
:103A90000111C0E90023C0E9021501618161FEF74F
:103AA0006DFA002818BFFCF769FE4FF480500B90A8
:103AB00040F2AC10C2F200000BA9FEF793FB002805
:103AC00018BFFCF75BFE40F2AC10C2F20000FEF73C
:103AD00007FE002818BFFCF751FE40F2AC1000258D
:103AE000C2F2000008A9CDE90855FEF707FA002840
:103AF00018BFFCF743FE6020CDE9010540F2AC1091
:103B0000C2F2000001A9082203950595FEF7E6FC24
:103B1000002818BFFCF732FE40F2AC15C2F20005D7
:103B200001A928460C22FEF7D9FC002818BFFCF793
:103B300025FE286840F60001C4F2000188424FF0DB
:103B40000001CDE91211CDE9101129D040F2004158
:103B5000C4F20001884213D0B0F1804F37D141F256
:103B60001800C4F202000168A4F5806441F0040169
:103B70000160006800F004000F900F980F201EE015
:103B800041F21800C4F20200016841F0080101602E
:103B9000006800F008000F900F9803200FE000BFAE
:103BA00041F21800C4F20200016841F0080101600E
:103BB000006800F008000F900F984FF440701090CC
:103BC00002201190139010A92046FDF7CBF914B0F4
:103BD000B0BD0000B0B594B040F60044C4F201049A
:103BE00040F2F4100021A4F58232C2F20000472313
:103BF00063250E91CDE90C110991CDE90711CDE9AD
:103C00000511CDE90311CDE90111C0E90023C0E997
:103C1000021501618161FEF7B1F9002818BFFCF7B8
:103C2000ADFD4FF480500B9040F2F410C2F2000052
:103C30000BA9FEF7D7FA002818BFFCF79FFD40F24A
:103C4000F410C2F20000FEF74BFD002818BFFCF78D
:103C500095FD40F2F4100025C2F2000008A9CDE95C
:103C60000855FEF74BF9002818BFFCF787FD6020C8
:103C7000CDE9010540F2F410C2F2000001A90822CA
:103C800003950595FEF72AFC002818BFFCF776FD82
:103C900040F2F415C2F2000501A928460C22FEF7F5
:103CA0001DFC002818BFFCF769FD286840F60001DC
:103CB000C4F2000188424FF00001CDE91211CDE9B4
:103CC000101129D040F20041C4F20001884213D003
:103CD000B0F1804F37D141F21800C4F20200016800
:103CE000A4F5806441F004010160006800F0040064
:103CF0000F900F980F201EE041F21800C4F202004E
:103D0000016841F008010160006800F008000F90B0
:103D10000F9803200FE000BF41F21800C4F2020028
:103D2000016841F008010160006800F008000F9090
:103D30000F984FF44070109002201190139010A92A
:103D40002046FDF70FF914B0B0BD000010B540F2E9
:103D50003C2443F60000C2F20004C4F201004FF418
:103D6000165100220C2384E807002046C4E90322F0
:103D7000C4E90532E261FFF769F8002818BFFCF7D3
:103D8000FDFC2068C16841F01001C16010BD000059
:103D9000FEE70000FEE700002DE9F04F83B040F29F
:103DA000101400264FF0FF37C2F200040DF1080A8C
:103DB0004FF040080DF10A054FF0000B4BF0B0003A
:103DC0008DF805002046782101AA02238DF80460B1
:103DD0000097FDF79BFA4FF48050ADF8060020469F
:103DE00078210DF1060202230097FDF78FFA204695
:103DF000782152460223ADF808600097FDF786FA55
:103E00004FF00009204678212A460223ADF80A80A7
:103E10000097FDF77BFAB9F17F0F09F10109F1D3A2
:103E2000BBF1070F0BF1010BC8D303B0BDE8F08F56
:103E3000B0B582B06420FDF781F840F210144FF461
:103E40002E40C2F20004ADF806004FF0FF350DF130
:103E500006022046782102230095FDF757FA4FF419
:103E60005540ADF806000DF10602204678210223E8
:103E70000095FDF74BFA4FF40040ADF806000DF148
:103E800006022046782102230095FDF73FFA4FF401
:103E90002840ADF806000DF10602204678210223E5
:103EA0000095FDF733FA4FF47C50ADF806000DF1A4
:103EB00006022046782102230095FDF727FA4FF4E9
:103EC0005340ADF806000DF106022046782102238A
:103ED0000095FDF71BFA0020ADF806000DF1060273
:103EE0002046782102230095FDF710FA4FF4804018
:103EF000ADF806000DF10602204678210223009558
:103F0000FDF704FA4FF42140ADF806000DF106026A
:103F10002046782102230095FDF7F8F94FF4484038
:103F2000ADF806000DF10602204678210223009527
:103F3000FDF7ECF94FF45A40ADF806000DF106021A
:103F40002046782102230095FDF7E0F94FF49050C8
:103F5000ADF806000DF106022046782102230095F7
:103F6000FDF7D4F94FF40140ADF806000DF106025B
:103F70002046782102230095FDF7C8F94FF44F4001
:103F8000ADF806000DF106022046782102230095C7
:103F9000FDF7BCF94FF45940ADF806000DF10602EB
:103FA0002046782102230095FDF7B0F94FF47140C7
:103FB000ADF806000DF10602204678210223009597
:103FC000FDF7A4F94FF45B40ADF806000DF10602D1
:103FD0002046782102230095FDF798F94FF44050D0
:103FE000ADF806000DF10602204678210223009567
:103FF000FDF78CF94FF42440ADF806000DF10602F0
:104000002046782102230095FDF780F94FF42640E1
:10401000ADF806000DF10602204678210223009536
:10402000FDF774F94FF40D40ADF806000DF10602EE
:104030002046782102230095FDF768F94FF4A0503F
:10404000ADF806000DF10602204678210223009506
:10405000FDF75CF94FF42F40ADF806000DF10602B4
:104060002046782102230095FDF750F9FFF794FED2
:1040700002B0B0BD2DE9F04F85B091467E2202EB33
:1040800040036FF0070240F21018039002EBC104E6
:1040900043F0B0000021C2F200088DF812108DF834
:1040A00013004FF0FF370DF1120240467821022332
:1040B000E5B200260097FDF729F928091030029093
:1040C0008DF813000DF112024046782102238DF87D
:1040D00012600097FDF71AF904F0080001908DF8BE
:1040E00013000DF112024046782102238DF8126070
:1040F0000097FDF70BF944F6F260C0F600004FF6AA
:10410000006100EB0910CFF6FF71A0F50074405C70
:104110000DF112064FF040098DF81300404678214A
:10412000324602238DF812900097FDF7EFF8607881
:10413000A57894F803A094F804B08DF813004046D5
:104140007821324602238DF812900097FDF7DEF8B1
:1041500040467821324602238DF812908DF8135094
:104160000097FDF7D3F840467821324602238DF8B8
:1041700012908DF813A00097FDF7C8F840467821FB
:10418000324602238DF812908DF813B00097FDF798
:10419000BDF8607978218DF813004046324602233D
:1041A0008DF812900097FDF7B1F8A07978218DF87D
:1041B00013004046324602238DF812900097FDF717
:1041C000A5F8E07978218DF81300404632460223A5
:1041D0008DF812900097FDF799F80398002507EBEA
:1041E000400040F0B0008DF813000DF1120240467F
:1041F000782102238DF812500097FDF787F8029876
:104200000DF112028DF813004046782102238DF83B
:10421000125000250097FDF779F801980DF1120270
:104220008DF813004046782102238DF81250009734
:10423000FDF76CF8207A0DF112058DF81300404659
:1042400078212A4602238DF812900097FDF75EF838
:10425000607A78218DF8130040462A4602238DF8B3
:1042600012900097FDF752F8A07A78218DF813008C
:1042700040462A4602238DF812900097FDF746F833
:10428000E07A78218DF8130040462A4602238DF803
:1042900012900097FDF73AF8207B78218DF81300F3
:1042A00040462A4602238DF812900097FDF72EF81B
:1042B000607B78218DF8130040462A4602238DF852
:1042C00012900097FDF722F8A07B78218DF813005B
:1042D00040462A4602238DF812900097FDF716F803
:1042E000E07B78218DF8130040462A4602238DF8A2
:1042F00012900097FDF70AF805B0BDE8F08F0000B6
:10430000002B08BF70472DE9F04F81B01C46914645
:104310008A468346981E5D425E1E002742F2107850
:1043200000901BE00120B9FBF0F04CF6CD41CCF63B
:10433000CC41A0FB0112D20802EB8202A0EB4200AA
:104340000AEB070140F03000C2B2C9B25846FFF78D
:1043500091FE0137A742A6F1010629D087EA0500A0
:104360000130DFD00098C01B032801D2012007E0F4
:1043700026F00301012000BF043900FB08F0FBD147
:10438000F943214411F00301CDD0012904D100EB00
:1043900080004000C7E700BF4FF47A724243022911
:1043A0004FF0640108BF00FB01F21046BBE700BFFD
:1043B00001B0BDE8F04F7047F0B581B014461278F7
:1043C0006AB10D46064600277819C1B2D2B230460E
:1043D000FFF750FE0137F8B2225C002AF4D101B099
:1043E000F0BD00007047000070470000FDF7B2B854
:1043F0007047000040F26410C2F20000FDF7C4BF35
:10440000406A0021C185C184FEF766BA81B090F888
:104410004210222921D183680246B3F5805F09D179
:1044200052F8281F52F8183C002B63D003685B68D1
:104430000AE000BF52F8281F13B90369002BF5D01A
:1044400003685B6803F07F030B7011680131116032
:10445000C18D01390A04C18502D001B0704700BF87
:104460000168CA6822F02002CA60CA6822F4807219
:10447000CA604A6922F001024A61202180F8421094
:1044800000214163026B012A3CD10163016851E8BC
:10449000031F026821F0100142E80313DBB1016839
:1044A00051E8031F026821F0100142E8031393B1A1
:1044B000016851E8031F026821F0100142E803136C
:1044C0004BB1016851E8031F026821F0100142E876
:1044D0000313002BDAD101680A68D20606D5002240
:1044E00000920A680092496800910099818D01B09C
:1044F000FEF7F0B9026852686FF35F2221F8022BD1
:104500008162A5E701B0FEF785BD000040F23C20C6
:10451000C2F20000FEF7E2B9FEE700002DE9F04725
:1045200040F20801C2F2000140F2000A91E8C10124
:10453000C4F2A02A514600F003FC00F0E5FB40F273
:104540006411C2F2000120EAE0700D685024502886
:10455000A8BF2046A8634FF0000938465146C5F869
:10456000349000F0EDFB00F0CFFB20EAE070502823
:10457000A8BF2046286430465146C5F83C9000F05C
:10458000DFFB00F0C1FB40F2F411C2F2000120EAAF
:10459000E07009685028A8BF20460864C1F83C9024
:1045A0004046514600F0CCFB00F0AEFB40F2AC11AF
:1045B000C2F200010A6820EAE0705028B8BF044641
:1045C00040F600001464C4F201008021C2F83C905F
:1045D000BDE8F04700F0A4B994B0FCF7C9FF00248F
:1045E0000120CDE90F44CDE90D440A900E904FF41F
:1045F000E0104FF48031022513900AA80494CDE90D
:104600000244CDE90B14CDE91151FDF75DFA28B153
:10461000EFF3108072B600BFFEE700BF0F20CDE9B8
:1046200005054FF48060CDE9080405A80221079430
:10463000FDF744F920B1EFF3108072B6FEE700BF3A
:10464000022001904FF40040039001A8FDF7B4F858
:1046500020B1EFF3108072B6FEE700BF40F6000411
:10466000C4F20104FFF7B4F8FFF7A2F8FFF722F94C
:10467000FFF76CFBFFF7F2F9FFF7ACFAFFF74CF826
:10468000FFF7F6F840F26410C2F20000FDF772FD89
:1046900000F002F9FFF7CCFB2046802100F044F93E
:1046A00040F29C06C2F200063046FCF76DF840F27C
:1046B0009405C2F20005304629460322FCF798FA19
:1046C00061A201200121FFF777FE61A202200121F2
:1046D000FFF772FE60A203200121FFF76DFE60A2CA
:1046E00004200121FFF768FE40F29207C2F20007A2
:1046F00040F23C20791CC2F200000122FEF760FC6F
:1047000040F28A0840F28C0940F28E0A45F2F246E5
:10471000C2F20008C2F20009C2F2000AC0F60006A6
:104720000FF2441B1CE000BF6888A9882A88A9F8FA
:104730000000AAF80010022008210423A8F8002095
:10474000FFF7DEFDB9F80020032008210423FFF75E
:10475000D7FDBAF80020042008210423FFF7D0FD7C
:104760003878002818BF00F0D1F90220FEF7C4FF06
:1047700048B1012001213246FFF71EFE0120012130
:104780005A46FFF719FE0420FEF7B6FF0820FEF791
:10479000B3FFA8B32046802100F0C6F86420FBF7E1
:1047A00033FF2046802100F0BBF86420FBF72CFF8C
:1047B0002046802100F0B8F86420FBF725FF204652
:1047C000802100F0ADF86420FBF71EFF2046802119
:1047D00000F0AAF86420FBF717FF2046802100F0C4
:1047E0009FF86420FBF710FF00F070F90120012111
:1047F0003246FFF7E1FD012001211EA2FFF7DCFD9B
:104800001020FEF779FF58B1FFF788FE0120012143
:104810003246FFF7D1FD012001211AA2FFF7CCFD9E
:104820002020FEF769FF00283FF47EAF00F080F8FB
:10483000012001213246FFF7BFFD0120012114A212
:10484000FFF7BAFD70E700BF4369616C6C6F210030
:104850007A756F3A000000007A686F6E673A000060
:10486000796F753A000000004C4F4144494E477E35
:104870007E000000544553542046494E4953484554
:10488000440000004241434B205445535400000073
:10489000474F205445535400B0B540F2AC14C2F217
:1048A00000042046FDF732FC40F2F415C2F2000588
:1048B0002846FDF72BFC28460821FDF793FF2846E4
:1048C0000C21FDF78FFF20460821FDF78BFF2046C6
:1048D0000C21FDF787FF28680025C5630564206863
:1048E00040F26414C2F20004C56305642046FDF77B
:1048F0000DFC20460021FDF775FF20460421FDF741
:1049000071FF20460821FDF76DFF20460C21FDF7C1
:1049100069FF206845638563C5630564B0BD000019
:104920000022FCF735BC00000122FCF731BC00007E
:104930002DE9F04740F20801C2F2000140F2000AFE
:1049400091E8C101C4F2A02A514600F0F9F900F043
:10495000DBF940F26411C2F2000120EAE0700D6858
:1049600050245028A8BF204668634FF000093846FD
:104970005146C5F8389000F0E3F900F0C5F920EA97
:10498000E0705028A8BF2046E86330465146C5F87D
:10499000409000F0D5F900F0B7F940F2F411C2F2FE
:1049A000000120EAE07009685028A8BF2046C863CB
:1049B000C1F840904046514600F0C2F900F0A4F919
:1049C00040F2AC11C2F200010A6820EAE0705028FF
:1049D000B8BF044640F60000D463C4F20100802151
:1049E000C2F84090BDE8F047FFF79ABF10B56138B4
:1049F00017280DD8DFE800F0240C0C140C0C0C0C5C
:104A00000C0C0C0C0C0C0C0C0C0C280C0C0C341896
:104A100000F05CF845F20354C0F6000423E000BF48
:104A200000F0ECF819A41EE040F29200C2F200007F
:104A3000017814A4B1FA81F14909017013E000BFB3
:104A400000F01EF913A40EE040F60000C4F20100CD
:104A5000802100F029F8FFF761FD10A403E000BFFA
:104A6000FFF766FF0FA445F2F242C0F600020120F4
:104A70000121FFF7A1FC012001212246BDE81040E1
:104A8000FFF79ABC78756E6A690000007269676802
:104A9000740000006C656674000000006261636B66
:104AA00000000000676F000040F2842CC2F2000C8E
:104AB0009CF800300133DAB2142A8CF8003038BF89
:104AC000704700228CF80020FCF75ABB40F26410BB
:104AD000C2F200000068002242638263C263026483
:104AE00040F2F410C2F2000000688021C263026448
:104AF00040F2AC10C2F20000036840F60000C4F2BD
:104B00000100DA631A64FFF70FBF000010B540F22E
:104B10008804C2F2000460880021B0F5FA6F38BF43
:104B20000121A288E3888800B2F5FA6F38BF02300D
:104B3000B3F5FA6F38BF0130DFE800F0160A040A57
:104B400010201004FFF7F4FE0020207010BD00BFFD
:104B500000F054F80120207010BD00BF00F090F864
:104B60000220207010BD00BF207802280AD0012842
:104B700004D1BDE8104000F041B800BFBDE81040CE
:104B8000FFF7D6BEBDE8104000F07AB840F28800CA
:104B9000C2F20000018941F2883301318AB29A429F
:104BA000018138BF704770B592B000214388848876
:104BB000C58802AE01810AA230464021CDE90045F8
:104BC000FBF71CFB82B240F23C20C2F200003146EF
:104BD0004FF0FF33FEF73AFA12B0BDE8704070476D
:104BE0007A756F3A2564207A686F6E673A2564207B
:104BF000796F753A25640D0A00000000F0B581B0A8
:104C000040F20800C2F20000002511C8C4F2A0253D
:104C1000294600F095F800F077F840F26411C2F2EE
:104C2000000120EAE070096850275028A8BF3846E4
:104C3000002648638E63CE630E642046294600F04A
:104C40007FF800F061F840F2F411C2F20001096847
:104C500020EAE0705028B8BF074640F2AC10CF639E
:104C60000E64C2F20000026840F60000D663C4F28F
:104C700001008021166401B0BDE8F040FFF750BE8E
:104C80002DE9F04140F26410C2F2000005680026F0
:104C900040F208006E63AE63C2F2000040F200080A
:104CA000C4688068C4F2A028414600F049F800F0CA
:104CB0002BF820EAE07050275028A8BF3846E86358
:104CC00040F2F4102E64C2F2000000684146C66350
:104CD0000664204600F034F800F016F840F2AC11FB
:104CE000C2F200010A6820EAE0705028B8BF074607
:104CF00040F60000D763C4F2010080211664BDE8CD
:104D0000F041FFF70DBE000041000B0ED3F19E02F3
:104D100008D950F400034FEA032323FA02F048BFF6
:104D20004042704710B500F08CF800BF49922480D3
:104D3000002070476FF0004282EA200070470000B8
:104D40004FF47F0C1CEAD0121EBF1CEAD11392EA6A
:104D50000C0F93EA0C0F00F0478090EA010F48BF58
:104D600042F480724FF0004C4CEA00204CEA0121E2
:104D700002EB0302A0FB0113A2F50002002918BFF9
:104D800043F001035B0028BF4FEA330342EB2242AA
:104D90005FEA132C4CEBC2502EBFBCEB436FB2F555
:104DA0007C0F70474FEA036CBCF1004F08BF20F046
:104DB0000100B2F57C0F38BF70470BD582F0FF02BF
:104DC00012F5803FC8BF704700F1C040D8BF00F067
:104DD0000040704700F5000C5FEA4C0C48BF70477C
:104DE000B0F1C04000F073B80CEAD11390EA010FA3
:104DF00048BF42F48072624538BF634504D280EAFE
:104E0000010000F00040704710B500F01AF800BF34
:104E10008900013E00F007B800F009B85FEA410CD4
:104E20005FEA1C6C08D080EA010000F050B85FEA2D
:104E3000400C5FEA1C6CF6D14FF00040A0F58000FA
:104E400070470EF1020E2EF0030E5EF8044B244262
:104E500004D44FEA4102B2F17F4F11D84FEA400328
:104E6000B3F17F4F0CD80ED14FEAD07C0CEB4C0C39
:104E70000CF1020CB2F17F4F08BF4CEBD17C04E087
:104E80004FF0080C01E04FEAD17C0CEB4C0324FA04
:104E900003F404F00704B4F1040C06D20EEB840C06
:104EA000BDE810404CF0010C6047DFE80CF007084B
:104EB00002024FF00040A0F5800010BD08464200FD
:104EC00018BFD2F1807288BF00F0004010BDFF21F2
:104ED00041EAD050C005704700000000000000000B
:104EE0000102030406070809000000000102030490
:104EF00001020000000000000000000000000000AF
:104F00000000000000F80000000000000033300046
:104F1000000000100C06100C06000000000000004D
:104F2000000040C07840C0784000043F04043F04C3
:104F30000400007088FC08300000001820FF211ECB
:104F40000000F008F000E018000000211C031E2102
:104F50001E0000F00888700000001E21232419277D
:104F6000211010160E0000000000000000000000DC
:104F70000000000000E018040200000000071820F4
:104F8000400000020418E000000000402018070064
:104F90000000404080F0804040000202010F01020A
:104FA0000200000000F0000000000101011F0101EB
:104FB0000100000000000000000080B07000000050
:104FC00000000000000000000000000101010101DC
:104FD000010100000000000000000030300000006F
:104FE0000000000000008060180400601806010046
:104FF000000000E010080810E000000F1020201052
:105000000F00001010F8000000000020203F2020BA
:105010000000007008080888700000302824222151
:105020003000003008888848300000182020201107
:105030000E000000C02010F8000000070424243FE8
:10504000240000F808888808080000192120201191
:105050000E0000E0108888180000000F11202011B9
:105060000E0000380808C83808000000003F0000A3
:1050700000000070880808887000001C222121228E
:105080001C0000E010080810E0000000312222118E
:105090000F00000000C0C000000000000030300021
:1050A00000000000008000000000000080600000A0
:1050B00000000000804020100800000102040810D9
:1050C00020004040404040404000040404040404E8
:1050D0000400000810204080000000201008040296
:1050E0000100007048080808F00000000030360198
:1050F0000000C030C828E810E00007182724231457
:105100000B000000C038E0000000203C2302022712
:10511000382008F8888888700000203F202020115F
:105120000E00C0300808080838000718202020109A
:10513000080008F808080810E000203F2020201090
:105140000F0008F88888E8081000203F202023205E
:10515000180008F88888E8081000203F20000300A5
:105160000000C03008080838000007182020221E60
:10517000020008F808000008F808203F210101217A
:105180003F20000808F8080800000020203F2020E9
:10519000000000000808F8080800C08080807F0038
:1051A000000008F888C028180800203F2001263891
:1051B000200008F8080000000000203F20202020E8
:1051C000300008F8F800F8F80800203F003F003FE2
:1051D000200008F830C00008F808203F2000071819
:1051E0003F00E01008080810E0000F1020202010F9
:1051F0000F0008F808080808F000203F210101010D
:105200000000E01008080810E0000F1824243850AF
:105210004F0008F8888888887000203F2000030C21
:10522000302000708808080838000038202121222A
:105230001C00180808F8080818000000203F20008B
:10524000000008F808000008F808001F20202020AF
:105250001F000878880000C83808000007380E01D1
:105260000000F80800F80008F800033C0700073CBD
:105270000300081868808068180820302C03032C6D
:1052800030200838C800C83808000000203F20003F
:10529000000010080808C8380800203826212020FF
:1052A0001800000000FE020202000000007F4040E3
:1052B0004000000C30C00000000000000001063873
:1052C000C00000020202FE000000004040407F00DB
:1052D00000000000040202020400000000000000C0
:1052E00000000000000000000000808080808080BE
:1052F00080800002020400000000000000000000A6
:1053000000000000808080800000001924222222FA
:105310003F2008F8008080000000003F112020118D
:105320000E000000008080800000000E1120202070
:105330001100000000808088F800000E112020106D
:105340003F200000808080800000001F2222222257
:105350001300008080F0888888180020203F2020DB
:1053600000000000808080808000006B9494949303
:10537000600008F8008080800000203F21000020AD
:105380003F2000809898000000000020203F20204F
:105390000000000000809898000000C08080807F9E
:1053A000000008F8000080808000203F24022D309B
:1053B0002000000808F8000000000020203F202006
:1053C00000008080808080808000203F20003F207F
:1053D000003F8080008080800000203F210000206E
:1053E0003F200000808080800000001F20202020BF
:1053F0001F00808000808000000080FFA12020111D
:105400000E000000008080808000000E112020A08F
:10541000FF80808080008080800020203F2120004D
:105420000100000080808080800000332424242438
:105430001900008080E0808000000000001F202014
:1054400000008080000000808000001F20202010CD
:105450003F20808080000080808000010E300806A0
:10546000010080800080008080800F300C030C30B1
:105470000F0000808000808080000020312E0E31DF
:105480002000808080000080808080818E701806DF
:10549000010000808080808080000021302C22214B
:1054A000300000000000807C020200000000003F8D
:1054B000404000000000FF00000000000000FF006E
:1054C00000000002027C800000000040403F00001D
:1054D00000000006010102020404000000000000B8
:1054E000000002030405060708090A0B0C0D0E0F45
:1054F00010102020202020202020202020202020CC
:1055000020200073746F70002855000800000020F0
:10551000200000005001000848550008200000202D
:105520007008000070010008010000001000000079
:105530000000A0400000A0400000A0400000A040EB
:0855400000127A0000000000D7
:04000005080000ED02
:00000001FF
